{
  "contractName": "Creator",
  "abi": [
    {
      "constant": false,
      "inputs": [
        {
          "name": "_timeLimit",
          "type": "uint32"
        },
        {
          "name": "_ballotType",
          "type": "uint8"
        },
        {
          "name": "_voteLimit",
          "type": "uint8"
        },
        {
          "name": "_ballotId",
          "type": "uint32"
        },
        {
          "name": "_title",
          "type": "string"
        },
        {
          "name": "_whitelisted",
          "type": "uint8"
        }
      ],
      "name": "createBallot",
      "outputs": [],
      "payable": false,
      "stateMutability": "nonpayable",
      "type": "function"
    },
    {
      "constant": true,
      "inputs": [
        {
          "name": "id",
          "type": "uint32"
        }
      ],
      "name": "getAddress",
      "outputs": [
        {
          "name": "contractAddress",
          "type": "address"
        }
      ],
      "payable": false,
      "stateMutability": "view",
      "type": "function"
    }
  ],
  "bytecode": "0x6060604052341561000f57600080fd5b6117838061001e6000396000f30060606040526004361061004c576000357c0100000000000000000000000000000000000000000000000000000000900463ffffffff168063550da4781461005157806368501aee146100f0575b600080fd5b341561005c57600080fd5b6100ee600480803563ffffffff1690602001909190803560ff1690602001909190803560ff1690602001909190803563ffffffff1690602001909190803590602001908201803590602001908080601f0160208091040260200160405190810160405280939291908181526020018383808284378201915050505050509190803560ff16906020019091905050610159565b005b34156100fb57600080fd5b610117600480803563ffffffff1690602001909190505061033a565b604051808273ffffffffffffffffffffffffffffffffffffffff1673ffffffffffffffffffffffffffffffffffffffff16815260200191505060405180910390f35b600033600160006101000a81548173ffffffffffffffffffffffffffffffffffffffff021916908373ffffffffffffffffffffffffffffffffffffffff160217905550868686868686600160009054906101000a900473ffffffffffffffffffffffffffffffffffffffff166101cd610382565b808863ffffffff1663ffffffff1681526020018760ff1660ff1681526020018660ff1660ff1681526020018563ffffffff1663ffffffff168152602001806020018460ff1660ff1681526020018373ffffffffffffffffffffffffffffffffffffffff1673ffffffffffffffffffffffffffffffffffffffff168152602001828103825285818151815260200191508051906020019080838360005b83811015610284578082015181840152602081019050610269565b50505050905090810190601f1680156102b15780820380516001836020036101000a031916815260200191505b5098505050505050505050604051809103906000f08015156102d257600080fd5b9050806000808663ffffffff1663ffffffff16815260200190815260200160002060006101000a81548173ffffffffffffffffffffffffffffffffffffffff021916908373ffffffffffffffffffffffffffffffffffffffff16021790555050505050505050565b60008060008363ffffffff1663ffffffff16815260200190815260200160002060009054906101000a900473ffffffffffffffffffffffffffffffffffffffff169050919050565b6040516113c580610393833901905600606060405234156200001057600080fd5b604051620013c5380380620013c58339810160405280805190602001909190805190602001909190805190602001909190805190602001909190805182019190602001805190602001909190805190602001909190505086600560000160066101000a81548163ffffffff021916908363ffffffff16021790555085600560000160006101000a81548160ff021916908360ff16021790555084600560000160056101000a81548160ff021916908360ff16021790555083600560000160016101000a81548163ffffffff021916908363ffffffff16021790555082600560010190805190602001906200010692919062000173565b5081600560020160006101000a81548160ff021916908360ff16021790555080600d60006101000a81548173ffffffffffffffffffffffffffffffffffffffff021916908373ffffffffffffffffffffffffffffffffffffffff1602179055505050505050505062000222565b828054600181600116156101000203166002900490600052602060002090601f016020900481019282601f10620001b657805160ff1916838001178555620001e7565b82800160010185558215620001e7579182015b82811115620001e6578251825591602001919060010190620001c9565b5b509050620001f69190620001fa565b5090565b6200021f91905b808211156200021b57600081600090555060010162000201565b5090565b90565b61119380620002326000396000f3006060604052600436106100f1576000357c0100000000000000000000000000000000000000000000000000000000900463ffffffff168063011a2592146100f6578063017e9d6e1461014257806306f2057a14610169578063392e6678146101965780635374be8f146101d5578063555a1ad6146102145780635d4945f0146102495780636ec4847a1461028a5780639201de55146102b7578063922133e314610357578063a711b87814610392578063b35e6cae14610414578063c91018a014610429578063e264ee1614610456578063ed5c2d3b1461047d578063eda9daed146104c7578063ff3c1a8f1461050c575b600080fd5b341561010157600080fd5b61014060048080359060200190919080356000191690602001909190803563ffffffff169060200190919080356000191690602001909190505061059a565b005b341561014d57600080fd5b6101676004808035600019169060200190919050506106a9565b005b341561017457600080fd5b61017c61073a565b604051808215151515815260200191505060405180910390f35b34156101a157600080fd5b6101bb60048080356000191690602001909190505061076b565b604051808215151515815260200191505060405180910390f35b34156101e057600080fd5b6101fa6004808035600019169060200190919050506107fa565b604051808215151515815260200191505060405180910390f35b341561021f57600080fd5b61022761086d565b604051808263ffffffff1663ffffffff16815260200191505060405180910390f35b341561025457600080fd5b610270600480803563ffffffff1690602001909190505061088a565b604051808215151515815260200191505060405180910390f35b341561029557600080fd5b61029d6108c9565b604051808215151515815260200191505060405180910390f35b34156102c257600080fd5b6102dc60048080356000191690602001909190505061094b565b6040518080602001828103825283818151815260200191508051906020019080838360005b8381101561031c578082015181840152602081019050610301565b50505050905090810190601f1680156103495780820380516001836020036101000a031916815260200191505b509250505060405180910390f35b341561036257600080fd5b61037c600480803560001916906020019091905050610b38565b6040518082815260200191505060405180910390f35b341561039d57600080fd5b6103bd600480803567ffffffffffffffff16906020019091905050610b79565b6040518080602001828103825283818151815260200191508051906020019060200280838360005b838110156104005780820151818401526020810190506103e5565b505050509050019250505060405180910390f35b341561041f57600080fd5b610427610bf9565b005b341561043457600080fd5b61043c610e0f565b604051808215151515815260200191505060405180910390f35b341561046157600080fd5b61047b600480803560001916906020019091905050610e40565b005b341561048857600080fd5b6104b160048080356000191690602001909190803563ffffffff16906020019091905050610ed0565b6040518082815260200191505060405180910390f35b34156104d257600080fd5b6104f2600480803567ffffffffffffffff16906020019091905050610f48565b604051808215151515815260200191505060405180910390f35b341561051757600080fd5b61051f610f8a565b6040518080602001828103825283818151815260200191508051906020019080838360005b8381101561055f578082015181840152602081019050610544565b50505050905090810190601f16801561058c5780820380516001836020036101000a031916815260200191505b509250505060405180910390f35b600015156105a78361088a565b151514806105c05750600015156105bc6108c9565b1515145b806105d75750600015156105d38461076b565b1515145b156105e157600080fd5b600115156105ed61073a565b1515148015610608575060001515610604826107fa565b1515145b1561061257600080fd5b6001600360010160003373ffffffffffffffffffffffffffffffffffffffff1673ffffffffffffffffffffffffffffffffffffffff16815260200190815260200160002060008282829054906101000a900460ff160192506101000a81548160ff021916908360ff160217905550836000600201600085600019166000191681526020019081526020016000208190555050505050565b600d60009054906101000a900473ffffffffffffffffffffffffffffffffffffffff1673ffffffffffffffffffffffffffffffffffffffff163373ffffffffffffffffffffffffffffffffffffffff1614151561070557600080fd5b6003600001805480600101828161071c9190611035565b91600052602060002090016000839091909150906000191690555050565b60006001600560020160009054906101000a900460ff1660ff1614156107635760019050610768565b600090505b90565b600080600090505b60008001805490508110156107ef57600080018181548110151561079357fe5b906000526020600020900154600a8160001916905550826000191660006001016000600a5460001916600019168152602001908152602001600020546000191614156107e257600191506107f4565b8080600101915050610773565b600091505b50919050565b600080600090505b6003600001805490508110156108625760036000018181548110151561082457fe5b906000526020600020900154600c81600019169055508260001916600c546000191614156108555760019150610867565b8080600101915050610802565b600091505b50919050565b6000600560000160069054906101000a900463ffffffff16905090565b6000600560000160069054906101000a900463ffffffff1663ffffffff168263ffffffff161015156108bf57600090506108c4565b600190505b919050565b6000600560000160059054906101000a900460ff1660ff16600360010160003373ffffffffffffffffffffffffffffffffffffffff1673ffffffffffffffffffffffffffffffffffffffff16815260200190815260200160002060009054906101000a900460ff1660ff1614156109435760009050610948565b600190505b90565b610953611061565b61095b611075565b6000806000610968611075565b60206040518059106109775750595b9080825280601f01601f1916602001820160405250945060009350600092505b6020831015610a55578260080260020a876001900402600102915060007f010000000000000000000000000000000000000000000000000000000000000002827effffffffffffffffffffffffffffffffffffffffffffffffffffffffffffff1916141515610a4857818585815181101515610a0f57fe5b9060200101907effffffffffffffffffffffffffffffffffffffffffffffffffffffffffffff1916908160001a90535083806001019450505b8280600101935050610997565b83604051805910610a635750595b9080825280601f01601f19166020018201604052509050600092505b83831015610b2b578483815181101515610a9557fe5b9060200101517f010000000000000000000000000000000000000000000000000000000000000090047f0100000000000000000000000000000000000000000000000000000000000000028184815181101515610aee57fe5b9060200101907effffffffffffffffffffffffffffffffffffffffffffffffffffffffffffff1916908160001a9053508280600101935050610a7f565b8095505050505050919050565b6000801515610b468361076b565b15151415610b5357600080fd5b600060020160008360001916600019168152602001908152602001600020549050919050565b610b81611089565b60001515610b8e83610f48565b15151415610b9b57600080fd5b60008001805480602002602001604051908101604052809291908181526020018280548015610bed57602002820191906000526020600020905b81546000191681526020019060010190808311610bd5575b50505050509050919050565b6000600d60009054906101000a900473ffffffffffffffffffffffffffffffffffffffff1673ffffffffffffffffffffffffffffffffffffffff163373ffffffffffffffffffffffffffffffffffffffff16141515610c5757600080fd5b6001600b60006101000a81548160ff021916908360ff160217905550600090505b6000800180549050811015610e0c576000800181815481101515610c9857fe5b906000526020600020900154600a8160001916905550610cb9600a5461094b565b60089080519060200190610cce92919061109d565b5060086040518082805460018160011615610100020316600290048015610d2c5780601f10610d0a576101008083540402835291820191610d2c565b820191906000526020600020905b815481529060010190602001808311610d18575b5050915050604051809103902060006001016000600a54600019166000191681526020019081526020016000208160001916905550600b60009054906101000a900460ff1660ff166000600201600060086040518082805460018160011615610100020316600290048015610dd85780601f10610db6576101008083540402835291820191610dd8565b820191906000526020600020905b815481529060010190602001808311610dc4575b5050915050604051809103902060001916600019168152602001908152602001600020819055508080600101915050610c78565b50565b60006001600560000160009054906101000a900460ff1660ff161415610e385760009050610e3d565b600190505b90565b600d60009054906101000a900473ffffffffffffffffffffffffffffffffffffffff1673ffffffffffffffffffffffffffffffffffffffff163373ffffffffffffffffffffffffffffffffffffffff16141515610e9c57600080fd5b600080018054806001018281610eb29190611035565b91600052602060002090016000839091909150906000191690555050565b6000801515610edd610e0f565b1515148015610ef8575060011515610ef48361088a565b1515145b15610f065760009050610f42565b60001515610f138461076b565b15151415610f2057600080fd5b6000600201600084600019166000191681526020019081526020016000205490505b92915050565b6000600560000160019054906101000a900463ffffffff1663ffffffff168267ffffffffffffffff161415610f805760019050610f85565b600090505b919050565b610f92611061565b60056001018054600181600116156101000203166002900480601f01602080910402602001604051908101604052809291908181526020018280546001816001161561010002031660029004801561102b5780601f106110005761010080835404028352916020019161102b565b820191906000526020600020905b81548152906001019060200180831161100e57829003601f168201915b5050505050905090565b81548183558181151161105c5781836000526020600020918201910161105b919061111d565b5b505050565b602060405190810160405280600081525090565b602060405190810160405280600081525090565b602060405190810160405280600081525090565b828054600181600116156101000203166002900490600052602060002090601f016020900481019282601f106110de57805160ff191683800117855561110c565b8280016001018555821561110c579182015b8281111561110b5782518255916020019190600101906110f0565b5b5090506111199190611142565b5090565b61113f91905b8082111561113b576000816000905550600101611123565b5090565b90565b61116491905b80821115611160576000816000905550600101611148565b5090565b905600a165627a7a72305820de3e231a1327daac0c63b23d891f5ec9e16889b0a880719d869693679920fe520029a165627a7a72305820c218baa6db7bf536715a944584070bc2c2e01c589edc483704bac5bc468ccb860029",
  "source": "pragma solidity ^0.4.10;\n\ncontract Voting {\n\n    struct Ballot {\n        uint8 ballotType;\n        uint32 ballotId;\n        uint8 voteLimit;\n        uint32 timeLimit;\n        string title;\n        uint8 whitelist;\n    }\n\n    struct Candidates {\n        bytes32[] candidateList;\n        mapping (bytes32 => bytes32) candidateHash;\n        mapping (bytes32 => uint256) votesReceived;\n    }\n\n    struct Voter {\n        bytes32[] whitelisted;\n        mapping (address => uint8) attemptedVotes;\n    }\n    \n    Candidates c;\n    Voter v;\n    Ballot b;\n\n    string convertCandidate;\n    string tempTitle;\n    bytes32 tempCandidate;\n    uint8 tempVote;\n    bytes32 tempEmail;\n    address owner;\n\n    function Voting(uint32 _timeLimit, uint8 _ballotType, uint8 _voteLimit, uint32 _ballotId, string _title, uint8 _whitelist, address _owner) {\n        b.timeLimit = _timeLimit;\n        b.ballotType = _ballotType;\n        b.voteLimit = _voteLimit;\n        b.ballotId = _ballotId;\n        b.title = _title;\n        b.whitelist = _whitelist;\n\n        owner = _owner;\n    }\n\n    modifier onlyOwner {\n        require(msg.sender == owner);\n        _;\n    }\n\n    function bytes32ToString(bytes32 x) constant returns (string) {\n        bytes memory bytesString = new bytes(32);\n        uint charCount = 0;\n        for (uint j = 0; j < 32; j++) {\n            byte char = byte(bytes32(uint(x) * 2 ** (8 * j)));\n            if (char != 0) {\n                bytesString[charCount] = char;\n                charCount++;\n            }\n        }\n        bytes memory bytesStringTrimmed = new bytes(charCount);\n        for (j = 0; j < charCount; j++) {\n            bytesStringTrimmed[j] = bytesString[j];\n        }\n        return string(bytesStringTrimmed);\n    }\n\n    function voteForCandidate(uint256 eVote, bytes32 cHash, uint32 _currentTime, bytes32 _email) {\n        if (checkTimelimit(_currentTime) == false || checkVoteattempts() == false || validCandidate(cHash) == false) revert();\n        if (checkWhitelist() == true && checkifWhitelisted(_email) == false) revert();\n        v.attemptedVotes[msg.sender] += 1;\n        c.votesReceived[cHash] = eVote;\n    }\n\n    function votesFor(bytes32 cHash) constant returns (uint256){\n        if (validCandidate(cHash) == false) revert();\n        return c.votesReceived[cHash];\n    }\n\n    function setCandidates(bytes32 _candidate) onlyOwner {\n        c.candidateList.push(_candidate);\n    }\n\n    function setWhitelisted(bytes32 _email) onlyOwner {\n        v.whitelisted.push(_email);\n    }\n\n    function setupCands() onlyOwner {\n        tempVote = 1;\n        for(uint i = 0; i < c.candidateList.length; i++) {\n            tempCandidate = c.candidateList[i];\n            convertCandidate = bytes32ToString(tempCandidate);\n            c.candidateHash[tempCandidate] = keccak256(convertCandidate);\n            c.votesReceived[keccak256(convertCandidate)] = tempVote;\n        }\n    }\n\n    function totalVotesFor(bytes32 cHash, uint32 _currentTime) constant returns (uint256){\n        if (checkBallottype() == false && checkTimelimit(_currentTime) == true) return 0;\n        if (validCandidate(cHash) == false) revert();\n        return c.votesReceived[cHash];\n    }\n\n    function validCandidate(bytes32 cHash) constant returns (bool) {\n        for(uint k = 0; k < c.candidateList.length; k++) {\n            tempCandidate = c.candidateList[k];\n            if (c.candidateHash[tempCandidate] == cHash) {\n                return true;\n            }\n        }\n        return false;\n    }\n\n    function candidateList(uint64 _ballotID) constant returns (bytes32[]) {\n        if (checkballotID(_ballotID) == false) revert();\n        return c.candidateList;\n    }\n\n    function checkTimelimit(uint32 currentTime) constant returns (bool) {\n        if (currentTime >= b.timeLimit) return false;\n        else return true;\n    }\n\n    function checkBallottype() constant returns (bool) {\n        if (b.ballotType == 1) return false;\n        else return true;\n    }\n\n    function checkballotID(uint64 ballotID) constant returns (bool) {\n        if (ballotID == b.ballotId) return true;\n        else return false;\n    }\n\n    function checkVoteattempts() constant returns (bool) {\n        if (v.attemptedVotes[msg.sender] == b.voteLimit) return false;\n        else return true;\n    }\n\n    function checkWhitelist() constant returns (bool) {\n        if (b.whitelist == 1) return true;\n        else return false;\n    }\n\n    function checkifWhitelisted(bytes32 email) constant returns (bool) {\n        for(uint j = 0; j < v.whitelisted.length; j++) {\n            tempEmail = v.whitelisted[j];\n            if (tempEmail == email) {\n                return true;\n            }\n        }\n        return false;\n    }\n\n    function getTimelimit() constant returns (uint32) {\n        return b.timeLimit;\n    }\n\n    function getTitle() constant returns (string) {\n        return b.title;\n    }\n}\n\n//                         //\n//Start of Creator contract//\n//                         //\n\ncontract Creator {\n\n    mapping (uint32 => address) contracts;\n    address owner;\n\n    function createBallot(uint32 _timeLimit, uint8 _ballotType, uint8 _voteLimit, uint32 _ballotId, string _title, uint8 _whitelisted) {\n        owner = msg.sender;\n        address newContract = new Voting(_timeLimit, _ballotType, _voteLimit, _ballotId, _title, _whitelisted, owner);\n        contracts[_ballotId] = newContract;\n    }\n\n    function getAddress(uint32 id) constant returns(address contractAddress) {\n        return contracts[id];\n    }\n}\n",
  "sourcePath": "/home/pmarella/Work/Wholicity/Alpha/contracts/Creator.sol",
  "compiler": {
    "name": "solc",
    "version": "0.4.18+commit.9cf6e910.Emscripten.clang"
  },
  "schemaVersion": "1.0.1",
  "updatedAt": "2017-12-28T02:29:39.561Z"
}