{
  "contractName": "Register",
  "abi": [
    {
      "constant": true,
      "inputs": [
        {
          "name": "email",
          "type": "bytes32"
        }
      ],
      "name": "checkVoter",
      "outputs": [
        {
          "name": "",
          "type": "uint8"
        }
      ],
      "payable": false,
      "stateMutability": "view",
      "type": "function"
    },
    {
      "constant": true,
      "inputs": [
        {
          "name": "_email",
          "type": "bytes32"
        }
      ],
      "name": "getPermission",
      "outputs": [
        {
          "name": "",
          "type": "uint8"
        }
      ],
      "payable": false,
      "stateMutability": "view",
      "type": "function"
    },
    {
      "constant": true,
      "inputs": [
        {
          "name": "domain",
          "type": "bytes32"
        }
      ],
      "name": "domainCheck",
      "outputs": [
        {
          "name": "",
          "type": "bool"
        }
      ],
      "payable": false,
      "stateMutability": "view",
      "type": "function"
    },
    {
      "constant": true,
      "inputs": [
        {
          "name": "email",
          "type": "bytes32"
        },
        {
          "name": "idnum",
          "type": "uint16"
        }
      ],
      "name": "checkReg",
      "outputs": [
        {
          "name": "",
          "type": "bool"
        }
      ],
      "payable": false,
      "stateMutability": "view",
      "type": "function"
    },
    {
      "constant": false,
      "inputs": [
        {
          "name": "email",
          "type": "bytes32"
        }
      ],
      "name": "givePermission",
      "outputs": [],
      "payable": false,
      "stateMutability": "nonpayable",
      "type": "function"
    },
    {
      "constant": true,
      "inputs": [
        {
          "name": "_ballotID",
          "type": "uint32"
        }
      ],
      "name": "getAddress",
      "outputs": [
        {
          "name": "",
          "type": "address"
        }
      ],
      "payable": false,
      "stateMutability": "view",
      "type": "function"
    },
    {
      "constant": false,
      "inputs": [
        {
          "name": "_ballotAddr",
          "type": "address"
        },
        {
          "name": "_ballotID",
          "type": "uint32"
        }
      ],
      "name": "setAddress",
      "outputs": [],
      "payable": false,
      "stateMutability": "nonpayable",
      "type": "function"
    },
    {
      "constant": false,
      "inputs": [
        {
          "name": "email",
          "type": "bytes32"
        },
        {
          "name": "idnum",
          "type": "uint16"
        },
        {
          "name": "_domain",
          "type": "bytes32"
        },
        {
          "name": "_permreq",
          "type": "uint8"
        }
      ],
      "name": "registerVoter",
      "outputs": [],
      "payable": false,
      "stateMutability": "nonpayable",
      "type": "function"
    },
    {
      "inputs": [
        {
          "name": "domainList",
          "type": "bytes32[]"
        }
      ],
      "payable": false,
      "stateMutability": "nonpayable",
      "type": "constructor"
    }
  ],
  "bytecode": "0x6060604052341561000f57600080fd5b6040516108a03803806108a0833981016040528080518201919050508060008001908051906020019061004392919061008b565b5033600960006101000a81548173ffffffffffffffffffffffffffffffffffffffff021916908373ffffffffffffffffffffffffffffffffffffffff16021790555050610103565b8280548282559060005260206000209081019282156100cd579160200282015b828111156100cc5782518290600019169055916020019190600101906100ab565b5b5090506100da91906100de565b5090565b61010091905b808211156100fc5760008160009055506001016100e4565b5090565b90565b61078e806101126000396000f30060606040526004361061008e576000357c0100000000000000000000000000000000000000000000000000000000900463ffffffff168063138d94551461009357806333d33167146100d457806355f16d7c14610115578063646208581461015457806364bb5657146101a057806368501aee146101c7578063794459dd14610230578063d2c09a5914610278575b600080fd5b341561009e57600080fd5b6100b86004808035600019169060200190919050506102c5565b604051808260ff1660ff16815260200191505060405180910390f35b34156100df57600080fd5b6100f960048080356000191690602001909190505061038e565b604051808260ff1660ff16815260200191505060405180910390f35b341561012057600080fd5b61013a6004808035600019169060200190919050506103c2565b604051808215151515815260200191505060405180910390f35b341561015f57600080fd5b61018660048080356000191690602001909190803561ffff16906020019091905050610426565b604051808215151515815260200191505060405180910390f35b34156101ab57600080fd5b6101c56004808035600019169060200190919050506104a5565b005b34156101d257600080fd5b6101ee600480803563ffffffff1690602001909190505061053c565b604051808273ffffffffffffffffffffffffffffffffffffffff1673ffffffffffffffffffffffffffffffffffffffff16815260200191505060405180910390f35b341561023b57600080fd5b610276600480803573ffffffffffffffffffffffffffffffffffffffff1690602001909190803563ffffffff16906020019091905050610588565b005b341561028357600080fd5b6102c360048080356000191690602001909190803561ffff169060200190919080356000191690602001909190803560ff1690602001909190505061064e565b005b60008060006003016000846000191660001916815260200190815260200160002060009054906101000a900461ffff1661ffff1614156103085760019050610389565b3373ffffffffffffffffffffffffffffffffffffffff1660006001016000846000191660001916815260200190815260200160002060009054906101000a900473ffffffffffffffffffffffffffffffffffffffff1673ffffffffffffffffffffffffffffffffffffffff161415156103845760029050610389565b600090505b919050565b6000806002016000836000191660001916815260200190815260200160002060009054906101000a900460ff169050919050565b600080600090505b600080018054905081101561041b57826000191660008001828154811015156103ef57fe5b90600052602060002090015460001916141561040e5760019150610420565b80806001019150506103ca565b600091505b50919050565b60008060006003016000856000191660001916815260200190815260200160002060009054906101000a900461ffff1661ffff1614801561048c57506000600102600060040160008461ffff1661ffff1681526020019081526020016000205460001916145b1561049a576001905061049f565b600090505b92915050565b600960009054906101000a900473ffffffffffffffffffffffffffffffffffffffff1673ffffffffffffffffffffffffffffffffffffffff163373ffffffffffffffffffffffffffffffffffffffff1614151561050157600080fd5b600160006002016000836000191660001916815260200190815260200160002060006101000a81548160ff021916908360ff16021790555050565b6000600560000160008363ffffffff1663ffffffff16815260200190815260200160002060009054906101000a900473ffffffffffffffffffffffffffffffffffffffff169050919050565b81600560000160008363ffffffff1663ffffffff16815260200190815260200160002060006101000a81548173ffffffffffffffffffffffffffffffffffffffff021916908373ffffffffffffffffffffffffffffffffffffffff16021790555080600560010160008473ffffffffffffffffffffffffffffffffffffffff1673ffffffffffffffffffffffffffffffffffffffff16815260200190815260200160002060006101000a81548163ffffffff021916908363ffffffff1602179055505050565b6000151561065b836103c2565b1515141561066857600080fd5b8260006003016000866000191660001916815260200190815260200160002060006101000a81548161ffff021916908361ffff1602179055508060006002016000866000191660001916815260200190815260200160002060006101000a81548160ff021916908360ff1602179055503360006001016000866000191660001916815260200190815260200160002060006101000a81548173ffffffffffffffffffffffffffffffffffffffff021916908373ffffffffffffffffffffffffffffffffffffffff16021790555083600060040160008561ffff1661ffff1681526020019081526020016000208160001916905550505050505600a165627a7a7230582082c8315e8f3703355772dde5b6154a24880e9636c7a7e41f5b98c247f47b343e0029",
  "source": "pragma solidity ^0.4.10;\n\ncontract Register {\n\n    struct Voter {\n        bytes32[] allowedDomains;\n        mapping (bytes32 => address) voterAddr;\n        mapping (bytes32 => uint8) createPerm;\n        mapping (bytes32 => uint16) voterID;\n        mapping (uint16 => bytes32) voterEmail;\n    }\n\n    struct Ballot {\n        mapping (uint32 => address) votingAddress;\n        mapping (address => uint32) ballotID;\n        mapping (uint64 => uint8) whitelistCheck;\n        mapping (bytes32 => uint8) allowedVoters;\n    }\n\n    Voter v;\n    Ballot b;\n    address owner;\n\n    function Register(bytes32[] domainList) {\n        v.allowedDomains = domainList;\n        owner = msg.sender;\n    }\n\n    modifier onlyOwner {\n        require(msg.sender == owner);\n        _;\n    }\n\n    function registerVoter(bytes32 email, uint16 idnum, bytes32 _domain, uint8 _permreq) {\n        if (domainCheck(_domain) == false) revert();\n        v.voterID[email] = idnum;\n        v.createPerm[email] = _permreq;\n        v.voterAddr[email] = msg.sender;\n        v.voterEmail[idnum] = email;\n    }\n\n    function givePermission(bytes32 email) onlyOwner {\n        v.createPerm[email] = 1;\n    }\n\n    function domainCheck(bytes32 domain) constant returns (bool) {\n        for(uint i = 0; i < v.allowedDomains.length; i++) {\n            if (v.allowedDomains[i] == domain) {\n                return true;\n            }\n        }\n        return false;\n    }\n\n    function checkReg(bytes32 email, uint16 idnum) constant returns (bool) {\n        if (v.voterID[email] == 0 && v.voterEmail[idnum] == 0) return true;\n        else return false;\n    }\n\n    function checkVoter(bytes32 email) constant returns (uint8) {\n        if (v.voterID[email] == 0) return 1;\n        if (v.voterAddr[email] != msg.sender) return 2;\n        else return 0;\n    }\n\n    function setAddress(address _ballotAddr, uint32 _ballotID) {\n        b.votingAddress[_ballotID] = _ballotAddr;\n        b.ballotID[_ballotAddr] = _ballotID;\n    }\n\n    function getAddress(uint32 _ballotID) constant returns (address) {\n        return b.votingAddress[_ballotID];\n    }\n\n    function getPermission(bytes32 _email) constant returns (uint8) {\n        return v.createPerm[_email];\n    }\n}\n",
  "sourcePath": "/home/pmarella/Work/Wholicity/Alpha/contracts/Register.sol",
  "compiler": {
    "name": "solc",
    "version": "0.4.18+commit.9cf6e910.Emscripten.clang"
  },
  "schemaVersion": "1.0.1",
  "updatedAt": "2017-12-28T02:29:39.578Z"
}