{
  "contractName": "Patient",
  "abi": [
    {
      "constant": false,
      "inputs": [
        {
          "name": "pName",
          "type": "bytes32"
        },
        {
          "name": "pAge",
          "type": "uint256"
        }
      ],
      "name": "putPatient",
      "outputs": [],
      "payable": false,
      "stateMutability": "nonpayable",
      "type": "function"
    },
    {
      "constant": false,
      "inputs": [
        {
          "name": "_pName",
          "type": "bytes32"
        }
      ],
      "name": "getPatient",
      "outputs": [
        {
          "name": "",
          "type": "uint256"
        }
      ],
      "payable": false,
      "stateMutability": "nonpayable",
      "type": "function"
    },
    {
      "constant": true,
      "inputs": [
        {
          "name": "",
          "type": "bytes32"
        }
      ],
      "name": "patientInfo",
      "outputs": [
        {
          "name": "age",
          "type": "uint256"
        }
      ],
      "payable": false,
      "stateMutability": "view",
      "type": "function"
    }
  ],
  "bytecode": "0x6060604052341561000f57600080fd5b6101998061001e6000396000f300606060405260043610610057576000357c0100000000000000000000000000000000000000000000000000000000900463ffffffff168063426f19951461005c5780637899a34e1461008c578063ef52dcef146100c7575b600080fd5b341561006757600080fd5b61008a600480803560001916906020019091908035906020019091905050610102565b005b341561009757600080fd5b6100b1600480803560001916906020019091905050610128565b6040518082815260200191505060405180910390f35b34156100d257600080fd5b6100ec60048080356000191690602001909190505061014f565b6040518082815260200191505060405180910390f35b806000808460001916600019168152602001908152602001600020600001819055505050565b60008060008360001916600019168152602001908152602001600020600001549050919050565b600060205280600052604060002060009150905080600001549050815600a165627a7a72305820c330a25f26238a9a71837494eda8cd879c3ec9ae3bc2828f5effe58788a899870029",
  "source": "pragma solidity ^0.4.18;\n\ncontract Patient {\n\n  struct patient {\n    uint age;\n  }\n\n  mapping (bytes32 => patient) public patientInfo;\n\n  function putPatient(bytes32 pName, uint pAge) public {\n    patientInfo[pName].age = pAge;\n  }\n\n  function getPatient(bytes32 _pName) public returns (uint) {\n      return patientInfo[_pName].age;\n  }\n\n}\n",
  "sourcePath": "/home/pmarella/Work/Wholicity/Alpha-v1.0/contracts/Patient.sol",
  "compiler": {
    "name": "solc",
    "version": "0.4.18+commit.9cf6e910.Emscripten.clang"
  },
  "schemaVersion": "1.0.1",
  "updatedAt": "2018-03-03T01:53:35.281Z"
}