{
  "contractName": "WhoToken",
  "abi": [
    {
      "constant": true,
      "inputs": [],
      "name": "tokensSold",
      "outputs": [
        {
          "name": "",
          "type": "uint256"
        }
      ],
      "payable": false,
      "stateMutability": "view",
      "type": "function"
    },
    {
      "constant": true,
      "inputs": [
        {
          "name": "user",
          "type": "address"
        }
      ],
      "name": "holderDetails",
      "outputs": [
        {
          "name": "",
          "type": "uint256"
        },
        {
          "name": "",
          "type": "uint256"
        }
      ],
      "payable": false,
      "stateMutability": "view",
      "type": "function"
    },
    {
      "constant": true,
      "inputs": [
        {
          "name": "",
          "type": "address"
        }
      ],
      "name": "holderInfo",
      "outputs": [
        {
          "name": "holderAddress",
          "type": "address"
        },
        {
          "name": "tokensBought",
          "type": "uint256"
        },
        {
          "name": "tokensUsed",
          "type": "uint256"
        }
      ],
      "payable": false,
      "stateMutability": "view",
      "type": "function"
    },
    {
      "constant": true,
      "inputs": [],
      "name": "totalTokens",
      "outputs": [
        {
          "name": "",
          "type": "uint256"
        }
      ],
      "payable": false,
      "stateMutability": "view",
      "type": "function"
    },
    {
      "constant": true,
      "inputs": [],
      "name": "tokenPrice",
      "outputs": [
        {
          "name": "",
          "type": "uint256"
        }
      ],
      "payable": false,
      "stateMutability": "view",
      "type": "function"
    },
    {
      "constant": false,
      "inputs": [
        {
          "name": "entryInTokens",
          "type": "uint256"
        }
      ],
      "name": "spendTokens",
      "outputs": [],
      "payable": false,
      "stateMutability": "nonpayable",
      "type": "function"
    },
    {
      "constant": false,
      "inputs": [
        {
          "name": "account",
          "type": "address"
        }
      ],
      "name": "transferTo",
      "outputs": [],
      "payable": false,
      "stateMutability": "nonpayable",
      "type": "function"
    },
    {
      "constant": false,
      "inputs": [],
      "name": "buy",
      "outputs": [
        {
          "name": "",
          "type": "uint256"
        }
      ],
      "payable": true,
      "stateMutability": "payable",
      "type": "function"
    },
    {
      "constant": true,
      "inputs": [],
      "name": "checkBalance",
      "outputs": [
        {
          "name": "",
          "type": "uint256"
        }
      ],
      "payable": false,
      "stateMutability": "view",
      "type": "function"
    },
    {
      "constant": true,
      "inputs": [],
      "name": "balanceTokens",
      "outputs": [
        {
          "name": "",
          "type": "uint256"
        }
      ],
      "payable": false,
      "stateMutability": "view",
      "type": "function"
    },
    {
      "inputs": [
        {
          "name": "tokens",
          "type": "uint256"
        },
        {
          "name": "pricePerToken",
          "type": "uint256"
        }
      ],
      "payable": false,
      "stateMutability": "nonpayable",
      "type": "constructor"
    }
  ],
  "bytecode": "0x6060604052341561000f57600080fd5b60405160408061072b8339810160405280805190602001909190805190602001909190505081600181905550816002819055508060038190555050506106d18061005a6000396000f3006060604052600436106100a4576000357c0100000000000000000000000000000000000000000000000000000000900463ffffffff168063518ab2a8146100a957806362c4c31f146100d25780636d1d59a8146101265780637e1c0c09146101ad5780637ff9b596146101d65780638e39f515146101ff578063a03fa7e314610222578063a6f2ae3a1461025b578063c71daccb14610279578063e4494a0f146102a2575b600080fd5b34156100b457600080fd5b6100bc6102cb565b6040518082815260200191505060405180910390f35b34156100dd57600080fd5b610109600480803573ffffffffffffffffffffffffffffffffffffffff169060200190919050506102d9565b604051808381526020018281526020019250505060405180910390f35b341561013157600080fd5b61015d600480803573ffffffffffffffffffffffffffffffffffffffff16906020019091905050610369565b604051808473ffffffffffffffffffffffffffffffffffffffff1673ffffffffffffffffffffffffffffffffffffffff168152602001838152602001828152602001935050505060405180910390f35b34156101b857600080fd5b6101c06103b3565b6040518082815260200191505060405180910390f35b34156101e157600080fd5b6101e96103b9565b6040518082815260200191505060405180910390f35b341561020a57600080fd5b61022060048080359060200190919050506103bf565b005b341561022d57600080fd5b610259600480803573ffffffffffffffffffffffffffffffffffffffff169060200190919050506104aa565b005b610263610504565b6040518082815260200191505060405180910390f35b341561028457600080fd5b61028c61060e565b6040518082815260200191505060405180910390f35b34156102ad57600080fd5b6102b561069f565b6040518082815260200191505060405180910390f35b600060025460015403905090565b6000806000808473ffffffffffffffffffffffffffffffffffffffff1673ffffffffffffffffffffffffffffffffffffffff168152602001908152602001600020600101546000808573ffffffffffffffffffffffffffffffffffffffff1673ffffffffffffffffffffffffffffffffffffffff1681526020019081526020016000206002015491509150915091565b60006020528060005260406000206000915090508060000160009054906101000a900473ffffffffffffffffffffffffffffffffffffffff16908060010154908060020154905083565b60015481565b60035481565b60008060003373ffffffffffffffffffffffffffffffffffffffff1673ffffffffffffffffffffffffffffffffffffffff168152602001908152602001600020600201546000803373ffffffffffffffffffffffffffffffffffffffff1673ffffffffffffffffffffffffffffffffffffffff1681526020019081526020016000206001015403905081811015151561045757600080fd5b816000803373ffffffffffffffffffffffffffffffffffffffff1673ffffffffffffffffffffffffffffffffffffffff168152602001908152602001600020600201600082825401925050819055505050565b8073ffffffffffffffffffffffffffffffffffffffff166108fc3073ffffffffffffffffffffffffffffffffffffffff16319081150290604051600060405180830381858888f19350505050151561050157600080fd5b50565b6000806003543481151561051457fe5b049050600254811115151561052857600080fd5b336000803373ffffffffffffffffffffffffffffffffffffffff1673ffffffffffffffffffffffffffffffffffffffff16815260200190815260200160002060000160006101000a81548173ffffffffffffffffffffffffffffffffffffffff021916908373ffffffffffffffffffffffffffffffffffffffff160217905550806000803373ffffffffffffffffffffffffffffffffffffffff1673ffffffffffffffffffffffffffffffffffffffff16815260200190815260200160002060010160008282540192505081905550806002600082825403925050819055508091505090565b6000806000803373ffffffffffffffffffffffffffffffffffffffff1673ffffffffffffffffffffffffffffffffffffffff168152602001908152602001600020600201546000803373ffffffffffffffffffffffffffffffffffffffff1673ffffffffffffffffffffffffffffffffffffffff168152602001908152602001600020600101540390508091505090565b600254815600a165627a7a723058201a863683053d46bd96a7e65a636fba9de957143bdecce6a24daa38469ef74d890029",
  "source": "pragma solidity ^0.4.18;\n\ncontract WhoToken {\n\n  struct tokenHolder {\n    address holderAddress;\n    uint tokensBought;\n    uint tokensUsed;\n  }\n\n  mapping (address => tokenHolder) public holderInfo;\n\n  uint public totalTokens;\n  uint public balanceTokens;\n  uint public tokenPrice;\n\n  function WhoToken(uint tokens, uint pricePerToken) public {\n    totalTokens = tokens;\n    balanceTokens = tokens;\n    tokenPrice = pricePerToken;\n  }\n\n  function spendTokens(uint entryInTokens) public {\n    uint availableTokens = holderInfo[msg.sender].tokensBought - holderInfo[msg.sender].tokensUsed;\n    require(availableTokens >= entryInTokens);\n\n    holderInfo[msg.sender].tokensUsed += entryInTokens;\n  }\n\n  function checkBalance() view public returns (uint) {\n      uint tokenBalance = holderInfo[msg.sender].tokensBought - holderInfo[msg.sender].tokensUsed;\n      return tokenBalance;\n  }\n\n  function buy() payable public returns (uint) {\n    uint tokensToBuy = msg.value / tokenPrice;\n    require(tokensToBuy <= balanceTokens);\n    holderInfo[msg.sender].holderAddress = msg.sender;\n    holderInfo[msg.sender].tokensBought += tokensToBuy;\n    balanceTokens -= tokensToBuy;\n    return tokensToBuy;\n  }\n\n  function tokensSold() view public returns (uint) {\n    return totalTokens - balanceTokens;\n  }\n\n  function holderDetails(address user) view public returns (uint, uint) {\n    return (holderInfo[user].tokensBought, holderInfo[user].tokensUsed);\n  }\n\n  function transferTo(address account) public {\n    account.transfer(this.balance);\n  }\n\n}\n",
  "sourcePath": "/home/pmarella/Work/Wholicity/Alpha-v1.0/contracts/WhoToken.sol",
  "compiler": {
    "name": "solc",
    "version": "0.4.18+commit.9cf6e910.Emscripten.clang"
  },
  "schemaVersion": "1.0.1",
  "updatedAt": "2018-01-11T22:12:36.087Z"
}